:030000000209975B
:0C099700787FE4F6D8FD75811B0209DEB4
:060B60000108000109007C
:100B1B00759850438920758DFDD28ED2AFD2AC2201
:080B58008F993099FDC299222A
:100AE200120AB1FF600C120B58740129F9E43AFAA8
:030AF20080EE2271
:03002300020A23AB
:0B0A2300C0E0C0D075D000C000C007CC
:100A2E00309815C298AF99740B2508F8A6070508DB
:080A3E00E508B410037508007F
:090A4600D007D000D0D0D0E0327E
:030B6700DFFE228C
:070A95007F38120AF57F050E
:100A9C00AE07AF061EEF600C7FF5120B677FF512E9
:050AAC000B6780EE2243
:100B2B007580FFC2A4D2A5C2A600D2A6E58033224F
:100AF500AD077F05120A9CC2A4C2A5D2A68D8000AF
:030B0500C2A62263
:100B0800AD077F05120A9CD2A4C2A5D2A68D80008B
:030B1800C2A62250
:0A0B3B007F01120AF57F05020A9CF3
:100A4F00AE07ED7005EE24808003EE24C0FF120A7E
:100A5F00F5120AB1FF600C120B08740129F9E43A80
:040A6F00FA80EE22F9
:100ACA00AE07AC03ED7005EE24808003EE24C0FF70
:080ADA00120AF5AF04020B083B
:100A7300120A95120A95120A957F38120AF57F0811
:100A8300120AF57F01120AF57F06120A977F0C02FC
:020A93000AF562
:0A0B4500438901D2AFD2A9D28C225D
:03000B00020B4F96
:090B4F00758CFE850A8AB2B232EF
:10080000E4F9FDFC120B1BF51BE508640160030213
:1008100008E1F508E50B0414B4080040030208BC25
:1008200090082E75F003A4C58325F0C583730208D4
:100830004602085A02086202086C0208780208861A
:100840000208960208AAC290D291D292D293D29470
:10085000D295D296D29779018062C290C291D292FB
:100860008006C290C291C292D2938008C290C29177
:10087000C292C293D294800AC290C291C292C29391
:10088000C294D295800CC290C291C292C293C2947B
:10089000C295D296800EC290C291C292C293C29467
:1008A000C295C296D297E4F98012C290C291C292C8
:1008B000C293C294C295C296C297E4F9B9012212BA
:1008C0000B457F01120A9C050A0DBD00010CD3EDFA
:1008D0009488EC941340EBC2AFC2A9C28CC2B2E4BC
:1008E000F92080137599153099FDC2993080FDE487
:1008F000F5993099FDC2992081137599163099FDAB
:10090000C2993081FDE4F5993099FDC29920821396
:100910007599173099FDC2993082FDE4F5993099A7
:10092000FDC2992083137599183099FDC2993083BF
:10093000FDE4F5993099FDC2992084137599193019
:1009400099FDC2993084FDE4F5993099FDC2992052
:10095000851375991A3099FDC2993085FDE4F59992
:100960003099FDC29920861375991B3099FDC29963
:100970003086FDE4F5993099FDC29930870302086D
:100980000975991C3099FDC2993087FDE4F59930BD
:0709900099FDC2990208095C
:1009A300020800E493A3F8E493A34003F68001F262
:1009B30008DFF48029E493A3F85407240CC8C33355
:1009C300C4540F4420C8834004F456800146F6DF24
:1009D300E4800B0102040810204080900B60E47E49
:1009E300019360BCA3FF543F30E509541FFEE49319
:1009F300A360010ECF54C025E060A840B8E493A3E0
:100A0300FAE493A3F8E493A3C8C582C8CAC583CA0A
:100A1300F0A3C8C582C8CAC583CADFE9DEE780BEC2
:010B6600008E
:100AB100BB010689828A83E0225002E722BBFE0243
:090AC100E32289828A83E4932276
:00000001FF
